:0400000080312528FE
:100008007E1480312000911E232823009F18092880
:100018001D1921287B082C3EF0002330F101F13D09
:10002800700886007108870019088100FB0A64308F
:100038007B06031D0628FB010628190806287E10E2
:100048000900803127280830840022308500E830F4
:10005800FE000130FF008631A5268031FB01220019
:10006800C201C301C4017E1020003A2803302100D8
:1000780099049913873099059A1C40280E148E14F8
:1000880022000C1521000C1122008E1621008E165C
:1000980022000E1621000E1622008C1221008C124E
:1000A80022000E108E100C1221000C168C14220047
:1000B8000C1421000C148E150E1523008C010C3025
:1000C8008E0021001708C1391C3897000130230021
:1000D8009C00A0309B009F151E151E129D179E1296
:1000E80094319F2480319A2580312100E601E7016F
:1000F800E201E301EE01EF012200AC01AC0A2100AC
:1001080091019201230019081908210091160B1773
:100118008B17A82580311130AE0021007F30E00117
:10012800E801E901EA01EB01EC01ED012200A00080
:100138008130A1003C30A6001C30A7004630A80042
:100148003C30A9001C30AA00C630AB002100E101F8
:100158002200AD0132302D020318B9282D08A03E27
:10016800860087018101AD0AAE28AD012100033068
:10017800E401E50199049913783099041A1EC228FC
:10018800312C3C30E325953182258031F8258031AA
:10019800C030F5008F30F6004430F700B4248031C9
:1001A800031C312C21007A30E601E701E201E3016A
:1001B800EC258031B42480310318FC282230220039
:1001C800AE0042268031E0248031D62580315F247C
:1001D8008031C32580315F248031AC250630DE01B3
:1001E800DE0ADF0092313222803122000C15312CD8
:1001F80033302200AE0042268031E0248031D625FB
:1002080080315F248031C32580315F248031AC2563
:1002180080310630DE01F5283C30AC01AC0AE3251C
:10022800953182258031F82580316130542680311E
:10023800B42480310318382909268031E02480311C
:10024800D62580315F248031C32580315F248031F9
:10025800AC25DE01DE0ADF01DF0A9231322280316D
:1002680022000C151130302C8030F2002230F300BF
:10027800453000268031B4248031031848292100F4
:100288000C12E101E10A5729F82580314030F500C8
:100298001C30F6004530F700B42480310318572984
:1002A80021000C16E1012C268031B424803103187A
:1002B800602921004430202AD530F200F301592664
:1002C80080310A258031720873040319892912269E
:1002D800803100268031B424803103187929220026
:1002E8002E082100D70066302F2C09268031E02403
:1002F8008031D62580315F248031C32580315F2449
:100308008031AC2580310230F3284730F200F30108
:1003180021006708F5006608F4006225803172083C
:100328007304031DA6296030F2001F30F300453026
:1003380000268031B42480310318A62922002E0813
:100348004E26803139268031622580317208730447
:10035800031DB22920269031FA208031EC30F200BA
:100368001330F30021006308F5006208F4000A2541
:100378008031720873040319312CF82580313C0848
:10038800F5003D08F6003E08F700B4248031031854
:10039800312C21003230E201E301F200F30164085C
:1003A800193EF4000030653DF5006526803172087D
:1003B8002000EF001A268031E024220025082000C2
:1003C800DA002030DB002130DC006F08DD00093066
:1003D800DE002630DF002930E000EE309231942232
:1003E8008031F9283C30AC01E325953182258031F4
:1003F800F8258031613054268031B42480310318C7
:10040800172A09268031E0248031D62580315F24DF
:100418008031C32580315F248031AC2580310330A1
:10042800DE01DF0031297A30EC258031B4248031B7
:100438000318222A21005530E0012F2C4630F20003
:100448000530F300592680310A258031720873047B
:100458000319502A1226803100268031B4248031B5
:1004680003183B2A22002E084E268031502A0926DE
:100478008031E0248031D62580315F248031C32546
:1004880080315F248031AC250430DE01DF009231F9
:100498003222803122000C153926803162258031C4
:1004A80072087304031D312C20269031FA20803104
:1004B800312C3C30E3259531822580317A30EC258A
:1004C8008031B424803103186C2A2100E00A6E2A96
:1004D80033302F2C02306002031C312C22302F2C99
:1004E8003C30E3259531822580312C268031B42497
:1004F80080310318722A21000230E00A6002031CCE
:10050800312C0C16E1016C2A94319F248031210092
:100518000C1022001D159D1723009E161D16210084
:100528000C16E1018E1022008C168A317F22803150
:100538009231042280312100DE01DF0102305F02A6
:10054800CC3003195E020318BE2A2F258031003AE9
:100558000319B42A88315C208031013A0319BE2A74
:100568000230F200F301E02480312100DE0A031991
:10057800DF0AA22A2100D801D90100305902283007
:10058800031958020318DA2A2F258031003A031973
:10059800D02A88315C2080310230F200F301E02457
:1005A80080312100D80A0319D90AC12A9131802142
:1005B80080312100DA01DB0100305B020A300319C7
:1005C8005A020318F92A2F258031003A0319EF2A15
:1005D80088315C2080310230F200F301E024803160
:1005E8002100DA0A0319DB0AE02A8E1423009E127E
:1005F8001D1221000C1494319F24803121005808C9
:100608005E07F40059085F3DF5005A08F4075B08D7
:10061800F53D1930F200F3010A25803173082100F5
:10062800DD007208DC0000305D02103003195C0246
:10063800031C212B0F30DC00DD0102305F02CC30BF
:1006480003195E020318152C34302000CE002F3019
:10065800CF0038308C3169248031E830CE00EB305F
:100668008A31562280313030B201B3004130B400B3
:1006780021006B082000B50021006C082000B6009E
:1006880021006D082000B70094313C2480313208E5
:100698002100EB00200033082100EC002000340882
:1006A8002100ED002000A030B201B3004030B400BA
:1006B800210068082000B500210069082000B60064
:1006C80021006A082000B70094313C2480313208A8
:1006D8002100E800200033082100E9002000340848
:1006E8002100EA0022003B082100D600D6131A2672
:1006F8008031E0248031603021005602031C942BA5
:10070800D62580315F248031C32580315F24803134
:10071800AC25803122002C082000DE000730272C71
:10072800D62580315F2480314E08EE004D08ED005B
:1007380022003F082000CD00220040082000CE0003
:10074800220041082000CF005F2480314E0821009C
:10075800D30020004D082100D20068082000CD00F9
:10076800210069082000CE0021006A082000CF007F
:100778005F2480314D082100D4006B082000CD0093
:1007880021006C082000CE0021006D082000CF0059
:100798005F2480314D082100D50022003708200051
:1007A800DD00220036082000DC0022003508200089
:1007B800DB00220034082000DA0022003B08200079
:1007C800E10022003A082000E00022003908200059
:1007D800DF00220038082000DE0022002F08200059
:1007E800E2006E08E4006D08E300210053082000D1
:1007F800E600210052082000E50022002C08200015
:10080800E70021005C082000E800210054082000CF
:10081800E900210055082000EA009331592380316E
:100828002B2C1A268031E0248031D62580315F2494
:100838008031C32580315F248031AC2522002C080B
:100848002000DE000530DF009231322280312200A4
:100858000C15210057082200AE00210017101714AC
:100868006300000021001710E60A0319E70AE20AEC
:100878000319E30A610B482C6E0F452C6F0A031904
:10088800482CEE0A0319EF0A22002E08113A031920
:10089800C528333A03191029113A0319F629773A6A
:1008A8000319742A113A03195D2A333A0319882A5D
:1008B800312C80312528472680310310520D530DE5
:1008C800D9005908031D6D2CCD01CE01CF01D001EF
:1008D8000800472680311730D336D20CD10C890B4B
:1008E800702C5108D400CE17CF014D08D5004E0802
:1008F800D6004F08D7008E30D801D902D91F902CC6
:100908005908803A8F3E031C682CD836D70CD60C71
:10091800D50CD90F892C9D2C183059020318682C36
:10092800590803199D2CD535D60DD70DD80DD903E7
:10093800942C54080319AB2CD509D609D709D80922
:10094800D50A0319D60A0319D70A0319D80A580869
:10095800D0005708CF005608CE005508CD00080033
:10096800F41FC32C7208003CF2007308031C730FB9
:10097800003CF3007408031C740F803CF400F71F5C
:10098800D22C7508003CF5007608031C760F003C55
:10099800F6007708031C770F803CF7008030F406D8
:1009A800F70677087402031D080076087302031D12
:1009B8000800750872020800F501F601730876024E
:1009C800031DE82C72087502031808008230F40031
:1009D800DE30890BED2CF40BED2C8230F400DE3088
:1009E800890BF42CF40BF42C8230F400DE30890BE4
:1009F800FB2CF40BFB2C8230F400DE30890B022D2B
:100A0800F40B022DF50A0319F60AE22CF701F80196
:100A18007208730403192A2DF601F60AF31B172D21
:100A2800F235F30D112DF735F80D73087502031D16
:100A38001F2D72087402031C262D7208F402730815
:100A4800F53B7714F336F20CF60B172D7808F30004
:100A58007708F200080022004408FA00F901F701BB
:100A6800F70A3C2D6430F70AFA0A7A060319FA01E4
:100A78007A087B060319492D7A085F2680310A30E7
:100A88000106031D362DF901F90AF701790B602DCE
:100A980082258031F8007708C83EF5002230F6013B
:100AA800F63D7508860076088700780881000A30C8
:100AB800F70A7806031D4C2D79080800720873049C
:100AC80003197D2DF601F60AF31B6D2DF235F30D92
:100AD800672D73087502031D732D72087402031CB9
:100AE800792D7208F4027308F53BF336F20CF60B15
:100AF8006D2D7508F3007408F20008002200440800
:100B08005F260108F40044082C3EF2002330F3016C
:100B1800F33D720886007308870030308100643026
:100B2800C40A44060319C40174080800F2017208D3
:100B3800C83E860022308701873D64308101F20A71
:100B48007202031808009B2D2200C301C20108008D
:100B58004E082200B30020004D082200B2003108E0
:100B68002000DB00220030082000DA0022003308D1
:100B78002000DD00220032082000DC0008004E08BA
:100B88002200B10020004D082200B0003F082000DC
:100B9800CD00220040082000CE002200410820009D
:100BA800CF00080022003C082000CD0022003D08AC
:100BB8002000CE0022003E082000CF0008002000C0
:100BC800C1003F30C2002630C3002930C40022349F
:100BD800F201F3004430F40022003C08F5003D081F
:100BE800F6003E08F700080022003F08F20040081F
:100BF800F3004108F4000800F40022003F08F50063
:100C08004008F6004108F700080021000C16E10131
:100C180022000C110230F200F3010800210080309C
:100C2800E601E701F200BB30F300443422000C1166
:100C38000230F200F301080020302000A200213029
:100C4800A300E430A400A030A5002D30A600253470
:100C580022003C08F2003D08F3003E08F4007A3018
:100C6800F501F6004430F70008006630F200F301A1
:100C780021006308F5006208F40008000C11023036
:100C8800F200F30108004D08D1004E08D2004F08C9
:100C9800D30008002100D70066302200AE0008000B
:100CA800F501F6004430F700080021006708F50058
:100CB8006608F40008002C3E860023308701873D33
:100CC8000800F701F31F6F2EF209F309F20A03195E
:100CD800F30AF701F70AF51F782EF409F509F40A63
:100CE8000319F50A0130F706F801F90172087304CF
:100CF8000319982EF601F60AF31B852EF235F30D2B
:100D08007F2EF835F90D73087502031D8D2E7208B4
:100D18007402031C942E7208F4027308F53B7814CD
:100D2800F336F20CF60B852E77080319A02EF80976
:100D3800F909F80A0319F90A7908F3007808F200A2
:100D480008006400013080010131FE020030FF3BE1
:0A0D58007F087E0403190034A62E64
:1010B800C830F2002230F300E530F40098304C22BA
:1010C8008831E920883172087304C830031DAD28BF
:1010D8005122883113218831003A0319E428B901D3
:1010E800BA01BB011B228831031D862825228831BD
:1010F8008E2688310E22883186002F08333D422201
:1011080088319528252288318E2688310E2288310B
:10111800B4002F08333DB50034088600350847224F
:1011280088310A30B90A3C06031D762850308600FB
:1011380022308700313001060319A8285030860074
:1011480032300106031DAB28B801B80AE428B801FB
:10115800E428F2002230F300EC30F40098304C22FE
:101168008831E920883172087304031DE428C830E7
:101178005122883113218831003A0319E428B90132
:10118800BA01BB011B228831031DD228F521883101
:1011980086002F08353D42228831DD28F521883127
:1011A800B6002F08353DB7003608860037084722B5
:1011B80088310A30B90A3C06031DC6280230B80037
:1011C80085319A252000380808000130F6020030E1
:1011D800F73B760FF228770A031910293C22883149
:1011E8000319FE2836228831F8003C228831780617
:1011F800031909297208860073088700362201023C
:10120800F200F301031CF3030800F20A0319F30ABE
:10121800F40A0319F50AE928F201F3010800250880
:1012280086002608870024300106031D00342F227B
:101238008831031900340230AD002F228831AC0008
:101248002F29EC218831010803193529EC2188312F
:101258000108AC06AD0AEC2188312A300106031DCD
:101268002529AD0AEC2188310D30010603194529DD
:10127800EC218831010803194529EC21883101083E
:10128800A900AD0AEC2188310D3001060319552952
:10129800EC218831010803195529EC21883101080E
:1012A800AA002930AB015E21883176082C06031983
:1012B80001340034A300A001A101A2012308860083
:1012C8008701010857248831031C6C29A30A622965
:1012D800230886002D3087010106031D7529A00A01
:1012E8007B29230886002B30870101060319A30AEE
:1012F800230886008701A30A0108A400C7218831B2
:10130800031CA5292408B92188312408031C8F2926
:10131800E0218831A4001A248831031C9529303033
:1013280096295730A402F030A10EA20EA20521087A
:101338000F39A204F030A1052408A1070318A20A56
:101348007C2920080319B4292109F8002209F90089
:10135800F80A0319F90A7808F6007908F70008006E
:101368002208F7002108F6000800F3005B30F201BC
:1013780073020318C52941307302031CC529F20101
:10138800F20A720C0800F5006730F401F40A7502DD
:101398000318D229613075020318DE294730750217
:1013A8000318DA29413075020318DE2975081A2452
:1013B800031CF401740C0800F2005B30720203187D
:1013C800EA2941307202031CEA29F2167208080061
:1013D8002D08A700A801250786002808263D8700B4
:1013E80008003B08AE00AF013A08B0009030B101E8
:1013F800B035B10DB035B10DB035B10DB2002330F7
:10140800B30030083207B4003108333DB5002E0868
:10141800340708000830B0002230B10072083007E5
:10142800B2007308313DB3002E08320708003908AE
:10143800C83E860022308701873D0108BC002C3A4F
:1014480008003B08AE00AF013A08F2000C30F30187
:10145800F400F501080025088600260887004131B8
:101468000108080074088400750885000008080051
:101478007208860073088700010808008700810148
:10148800BA0ABB01080087003C088100BB0A0800B3
:10149800F5000630F600F70108002000A50022300C
:1014A800A6000800FA0090308600233087004831F3
:1014B8000108031D632A7A08D12788316C2A9830DD
:1014C800CB002330CC00212688317A08A227883126
:1014D800C8308600233087000108031D762A4E088D
:1014E800D1270800C830CB002330CC002126883112
:1014F8004E08A2270800F801F9018D2A8A278831A9
:101508008E268831362788310C307902031C822ACE
:10151800F80A10307802031C882AF801F9019F2A7A
:101528008A2788318E268831362788310C3079020F
:10153800031C942AF80A10307802031C9A2A853171
:101548009A2D43080319AA2AAB2788316B278831BB
:10155800C40057248831031CB52AC10A0319C20ADA
:10156800AA2A2D30C5014406031DBD2AC501C50A96
:10157800C12A2B304406031DC42AC10A0319C20A12
:10158800C401C701C801C901CA01C601D72A410857
:101598008600420887002E300106031DD92A451609
:1015A800C10A0319C20A451ECB2A6B2788311A249F
:1015B8008831031C0E2B0830C514440603190A2B66
:1015C800451AC6030A30C40AF200F301F401F50112
:1015D8004A08F9004908F8004808F7004708F600E3
:1015E800FC2588317508CA007408C9007308C8004A
:1015F8007208C7006B278831D03EC707013003182F
:10160800C8070318C9070318CA07D42A451AD42AD1
:10161800C60AD42AC40141088600420887006530FA
:10162800010603191F2B4108860042088700453030
:101638000106031D702BC10A0319C20A410886005E
:10164800420887002D300106031D2C2BC5153C2BA5
:1016580041088600420887002B30010603193C2BFD
:10166800410886004208870030300106031D402BE0
:10167800C10A0319C20A342B6B2788311A2488310E
:10168800031C6C2B6B278831D03EC400C10A031998
:10169800C20A6B2788311A248831031C6C2BB327A4
:1016A8009731162788310107D03E2000C400C10AAF
:1016B8000319C20A6B2788311A248831031C6C2B42
:1016C800B3279731162788310107D03E2000C40080
:1016D800C51D702BC409C40A4408C6074308031D66
:1016E800C51C782BAB2788314A08A3004908A200FB
:1016F8004808A1004708A000282488312008C7000E
:101708002108C8002208C90048044704031D902B7B
:10171800C101C201C3010800C61FC92BC609C60AF8
:101728004608803A763E031CB22B0330B2001530CF
:10173800B3005030C32794313C248831DF278831E7
:10174800F630C607942B2030B201B3004130C327CE
:1017580094313C248831DF278831C6034608031DAD
:10176800A72B4708F2004808F3004908F400803026
:10177800F501F600F7018431B42488310318CE2B23
:101788002000451CC82BEC2FCB2F4608803A7F3E03
:101798000318F22B2000451CDE2B4708F2004808EE
:1017A800F3004908F400A3267208C7007308C800AC
:1017B8007408C9004708C1004808C2004908C300A6
:1017C80008000330A3001530A4005030BB27963121
:1017D80031268831D8278831F630C6070A304602C4
:1017E800031C022CE52B2030A301A4004130BB27A9
:1017F800963131268831D8278831C6034608031D1B
:10180800F72BFF30F2007F30F300F4004708F500B3
:101818004808F6004908F7008431B42488310318D1
:10182800CE2B2000451C192CEC2FCB2FF3003A307F
:10183800F20173020318262C30307302031C262C85
:10184800F201F20A720C08008E30A501A400A31F51
:101858003A2CA009A109A209A309A00A0319A10AFF
:101868000319A20A0319A30AA501A50AFF30230533
:101878000319442CA336A20CA10CA00CA40A3A2CE0
:101888002008F2002108F3002208F4002408F500DB
:101898002508F6009631D8267208A0007308A10022
:1018A8007408A2000800F3002030F201F20A73065F
:1018B8000319672C0E3073020318662C0930730263
:1018C8000318672CF201720C0800D7000830860054
:1018D8002230870058310108D03EDC00F2009830F1
:1018E80071278831F1278831FC2588317508DB009C
:1018F800F626883157087727883108308600223045
:10190800870059310108D03EDC00F2000F30712702
:101918008831F6278831FC258831AB268831083094
:101928008600223087005A310108D03EDC00F200E0
:10193800013071278831FB278831FC258831AB2697
:10194800883108308600223087005B310108D03E9C
:10195800DC00F2002730832788311030F600FC25A0
:101968008831AB26883108308600223087005D3107
:101978000108D03EDC00F200033083278831E830CC
:10198800F600FC258831AB268831083086002230E5
:1019980087005E310108D03EDC00F2006430632726
:1019A8008831FC258831AB26883108308600223002
:1019B80087005F310108D03EDC00F2000A3063275F
:1019C8008831FC258831AB268831283086002C27C1
:1019D8008831FD268831570805278831570811278F
:1019E80088312C3086002230870053300106031DD1
:1019F800062D570849278831570886000130870087
:101A08001B2788313830242788310530F301F40149
:101A1800F501F900F530F800E130F7000030F60183
:101A2800FC2588317508DB00F62688314E087727B3
:101A38008831393024278831983071278831F12747
:101A48008831FC2588317508D12688313A30242719
:101A580088310F3071278831F6278831FC25883185
:101A68007508D12688313B30242788310130712709
:101A78008831FB278831FC2588317508D1268831C3
:101A88003C30242788312730832788311030F600EE
:101A9800FC2588317508D12688313E3024278831C5
:101AA800033083278831E830F600FC258831750833
:101AB800D12688313F302427883164306327883124
:101AC800FC2588317508D126883140302427883193
:101AD8000A3063278831FC2588317508D12688317A
:101AE800413086002C278831FD2688314E0805278D
:101AF80088314E081127883144308600223087000B
:101B080057300106031D912D4E08492788314E088C
:101B18008600013087001B2788316830CB002230CF
:101B2800CC00212688314B08D4004C08D5004D083C
:101B3800D60095278030F501F6003F30F700843154
:101B4800B42488310318AC2D9C2788318101D02D0D
:101B5800200095274030F501F601F7008431B424C0
:101B680088310318BC2D9C2788318101810AD02D2A
:101B780020009527A030F501F6004030F7008431A9
:101B8800B42488310318CC2D9C2788310230CF2DFE
:101B98009C2788310330810059278831D000D00C28
:101BA800D00C500CC03981004F088600C030810528
:101BB8005C30F8002230F9002E2688317808DC00E5
:101BC80004305C02031C080007305C020318F02D87
:101BD800592710388100080009305C0259278831DC
:101BE8000318F92D203881000800303881000800DA
:101BF800A001A101A201A301721C0A2E7608A00768
:101C08007708A13D7808A23D7908A33DF635F70D80
:101C1800F80DF90DF536F40CF30CF20C7508740494
:101C280073047204031D002E2308F5002208F40033
:101C38002108F3002008F20008004C08C2004B08F5
:101C4800C100C301A5224108CB004208CC004308CB
:101C5800CD00080078088600790887002030010642
:101C6800031D3A2EF80A0319F90A2E2E7808860061
:101C780079088700093001060319362EA501A60147
:101C8800A40178088600790887002D300106031D15
:101C98004F2EA40A762E78088600790887002B3004
:101CA80001060319762EE62788311A248831031C89
:101CB8007A2EE6278831A000A1012608F30025081E
:101CC800F2000A30F400F5018E26883120087207E8
:101CD800A2002108733DA3002208D03EA500FF30D2
:101CE800233DA600F80A0319F90A572E24080319F8
:101CF800892E2509A0002609A100A00A0319A10A16
:101D08002008F8002108F90008002608F90025082D
:101D1800F8000800F601F701721C962E7408F60701
:101D28007508F73DF435F50DF336F20C72087304B7
:101D3800031D902E7708F3007608F2000800740857
:101D480073047204031908008030F406080075084B
:101D5800DB007408DA007308D9007208D800D000D4
:101D68005908D1005A08D2005B08D30057088600EA
:101D780001308700403FD007413FD13D423FD23D2F
:101D8800433FD33D570886005008C03F5108C13F24
:101D98005208C23F5308C33F0800DB007408DA004A
:101DA8007308D9007208D800D0005908D1005A0821
:101DB800D2005B08D3004E08860001308700403F00
:101DC800D007413FD13D423FD23D433FD33D4E082E
:101DD80086005008C03F5108C13F5208C23F53080F
:101DE800C33F08007408DA007308D9007208D800E5
:101DF8000800D0005908D1005A08D2005B08D30067
:101E08000800860001308700403FD007413FD13DA0
:101E1800423FD23D433FD33D080086005008C03FB3
:101E28005108C13F5208C23F5308C33F0800500839
:101E3800C03F5108C13F5208C23F5308C33F080082
:101E48008600223087000108D03EDC00F20008003E
:101E5800223087000108D03EDC00D800D901DA0121
:101E6800DB0108000830A2002230A3007208220714
:101E7800A4007308233DA500200824078600210834
:101E8800253D87008101F90A080086000130870096
:101E98000108D00041310108D10041310108D200C8
:101EA800803041310104D30008004F08860001301A
:101EB80087004F0884000130850000080800F301FE
:101EC800F401F501F600F701F801F90108004108ED
:101ED80086004208870001080800F301F401F501B3
:101EE800F901F80008008600013087005808C03F53
:101EF8005908C13F5A08C23F5B08C33F0800F301B5
:101F0800F401F501F901F801F7000800790820004B
:101F1800A000A1017808F2000C30F301F400F501EB
:101F280008005408F2005508F3005608F4000800A9
:101F380020004F08860001308700080086008701CE
:101F48004B08C03F4C08C13F4D08C23F080043083A
:101F5800860087014108C03F4208C13F0800410888
:101F68008600420887000A30F20044080800A500ED
:101F78004708A6004808A7004908A8000800B400B8
:101F88004708B5004808B6004908B700080080307F
:101F9800C101C2000030C30108008600003087017B
:101FA800C03FC13FC23F08002308C7002408C8003B
:101FB8002508C90008003208C7003308C8003408DB
:101FC800C900080078088600790887000108080019
:101FD8008030C101C200C30008009630F70080308D
:101FE800F60008004230F7004030F600080086305E
:081FF800F700A030F60008001C
:1021F400AE008600013087000108AD009B219031BC
:10220400A7002E08860001308700270881002E08C9
:102214008600010A031979292E0886000108803AEC
:10222400A700220886000108803AA70203181E2985
:10223400220886009C2790312308860001308700FD
:102244000108803AA7002E0886000108803AA702F8
:1022540003183029230886009C279031240886001F
:1022640087012E088400013085000008A700260895
:10227400840000082507A8008400850100082702BF
:10228400A900AA01031CAA03A71BAA03801F4C29A7
:102294002000AA0A403F20002907AB00413F2A3D05
:1022A400AC002408860087012B08C03F2C08C13FDE
:1022B400260886000130870001082507A70086004C
:1022C40087019C2790312608860001308700260864
:1022D40084000008013E8100260886003230010691
:1022E400031D0800260886000130810108002E081D
:1022F4008600013087002D08810008007D30F2003F
:102304009830F300C524903123009E1C86290230A6
:10231400F200F3018431E02490319F2490312F3076
:10232400F2009830F300C524903123009E18080071
:10233400972921000E1222001D119D1323009E16C1
:102344001D169F2485319A2590310130F200993071
:10235400F300C52490310D30982490319E1CB0298F
:102364002000A101DC29C8308600223087000D300E
:1023740041310106C830860022308700031DC5297B
:102384000108D03ED1290A304131F200C83084001E
:10239400223085000008162790310107F03E200006
:1023A400A000F6290230F200F3018431E0249031D8
:1023B4002000A10A0A3021020318F62985312F25AD
:1023C4009031003A0319D42985312F259031003AF0
:1023D4000319D429C8308600223087003030010622
:1023E400031DB5292000A00185319A259031A3272A
:1023F40090319F2490310A30200021020318FF34C9
:10240400200808000530F200F3018431E024903103
:102414000030F2009830F300C5249031CB30F20044
:102424009830F300C5249031B130F2009830F300B5
:10243400C52490319730F2009830F300C5249031D0
:102444006330F2009830F300C52490314930F20033
:102454009830F300C524903123009E1808002E2ADA
:102464009F24903122279031C5249031E0301E24DE
:10247400903120005F081E24903120005E08090777
:1024840009070907FA000830FA052200430807394A
:10249400FA04073043020318512AC30A522AC3011B
:1024A4007A081E24903120005B08A1005A08A0007D
:1024B400B524903171279031522790313C249031CA
:1024C400772784315F2490314D08FA001E2490311F
:1024D40020005D08A1005C08A000B524903171279C
:1024E4009031522790313C249031772784315F24F6
:1024F40090314D08FA007A081E2490310D3098244A
:1025040090319E1C832A0A30F200F3018431E024C6
:1025140090315A30F200F3018431E0249031A32742
:1025240090319F2CE4009F24903122279031C524C0
:10253400903160302000E500220043080739200074
:10254400E5040730220043020318AA2AC30AAB2A6F
:10255400C301200065081E24903120005A081E245F
:10256400903120005D081E249031E227903101084B
:102574001E249031E22790315A0881005C088600BD
:1025840001081E2420005C088600013087005A08D8
:1025940081001430F200F301640886008701403F93
:1025A400F400413FF50085310A259031200064088C
:1025B400860087017208C03F7308C13F6408860023
:1025C400403FE100413FE200003062024030031925
:1025D400610264088600031CF52A3F30C03F0030C6
:1025E400C13F640886008701010809070907E5005F
:1025F400640886000030C03FC13F0430220042021C
:102604000318062B4208072B03302000E300E504DF
:1026140065081E24903120005E0EF039E500F0308C
:10262400E50565081E24903120005F08432790319A
:102634003C249031772784315F2490314D08E500A4
:102644001E24903120006008432790313C249031AF
:10265400772784315F2490314D08E5001E249031A2
:1026640020005F088600013087003C30C03F1C30EA
:10267400C13F4630C23F600886003C30C03F1C303A
:10268400C13FC630C23F0D30982490319E1C482B68
:102694000A30F200F3018431E02490315A30F20020
:1026A400F3018431E0249031A32790319F2C9F249F
:1026B400903122279031C5249031200061081E24D6
:1026C4009031200060081E24903120005F081E24F1
:1026D400903120005E081E24903120005D081E24E5
:1026E400903120005C081E24903120005B081E24D9
:1026F400903120005A081E249031200067080907F1
:102704000907090708396204EC0022004308073965
:102714002000EC040730220043020318932BC30A61
:10272400942BC30120006C081E2490312000680EF5
:10273400F039EC006936EC046C081E24903120005A
:1027440069080139FA000630FA35FF3E031DA62B4D
:102754007A35EC006A087C3909070907EC040C3067
:1027640064021C3003196302031CBA2B1F30D12BE3
:102774006408A1006308A000B5249031712790314A
:10278400B700C830F72790313C249031912790311D
:10279400D4249031C62784315F2490314D08EB0056
:1027A400FA00FA36FA36FA367A08EC046C081E2473
:1027B400903120006B08FA000430FA35FF3E031D07
:1027C400DF2B7A35EC000A306602E6300319650225
:1027D400031CEE2B1F30052C6608A1006508A00021
:1027E400B524903171279031B700B430F727903178
:1027F4003C24903191279031D4249031C6278431E0
:102804005F2490314D08EB00EC046C081E249031D9
:102814000D30982490319E1C0D2C0A30F200F301E7
:102824008431E02490315A30F200F3018431E02401
:102834009031A32790319F2CF500750E0F39F700C6
:102844000A30770277080318292C303E2A2C373EA9
:1028540098249031F030F2007708162790317507EC
:10286400F6000A307602760803183A2C303E982C8B
:10287400373E982C3508B8003608B9003708BA0036
:102884000310390D3A0DBF003F08031D4A2CFC2FDD
:102894003208B8003308B9003408BA000310390DFF
:1028A4003A0DC0004008031D582CFC2F8930BC0190
:1028B400BD01BE014007B800BF023708C00034089C
:1028C400C0068030C0051830B617B701B317B4017D
:1028D400BB00BC35BD0DBE0D34083702031D782C7A
:1028E40033083602031D782C32083502031C812C70
:1028F4003208B5023308B63B3408B73B3C14B5354F
:10290400B60DB70DBB0B6B2C3C08F2003D08F30071
:102914003E08F4003F08F5004008F600D826720887
:10292400B2007308B3007408B4000800F200230076
:102934009E1C992C72089A000800FB012200C40115
:10294400F40174082C3EF2002330F301F33D7208C5
:10295400860073088700303081006430F40A740202
:1029640003180800A32C2008F2002108F3008E307D
:10297400F401F500F601D8267208A0007308A1003E
:102984007408A2000800F7016527903112000319AA
:10299400080023009E1CCB2C6527903100089A0068
:1029A400F70AC62C4108C7004208C8004308C900FA
:1029B4000310480D490DCC004408C7004508C80061
:1029C4004608C9000310480D490DCB004C080319F3
:1029D400F72C4B084C024B080318FF2CC7004C087B
:1029E400C70219304702031CFE2C4408C1004508E5
:1029F400C2004608C30008004B08031908004C082D
:102A04004B0203180D2D4C08C7004B08C7021930A0
:102A14004702031808000630CA00C31BCA17C61BA6
:102A24004A17C217C301C517C6014B084C02031845
:102A3400322DC435C50DC60DCB034B084C06031906
:102A44002D2DCA034A08073903192D2D1B2DC33612
:102A5400C20CC10CCC0A4C084B0603194C2D292D71
:102A64004C084B0203184C2DC135C20DC30DCC03C9
:102A74004B084C060319482DCA034A0807390319A1
:102A8400482D362DC636C50CC40CCB0A4C084B0653
:102A9400031D442DCA1F572DFF30C106C206C306AD
:102AA400C10A0319C20A0319C30A4A1F5F2DE82782
:102AB40090310319C50A0319C60ACA014108C4079B
:102AC4004208C53D4308C63DC61F702DE827903116
:102AD4000319C50A0319C60ACA01CA0A4408F2003E
:102AE4004508F3004608F4004C08F5004A08F600CF
:102AF400D8267208C1007308C2007408C300080015
:102B0400CE007D308D26903173082000CD007208F0
:102B1400CC001D308D26903173082000CB00720844
:102B2400CA00EE279031B52490312008B2008627E0
:102B340090314B08A1004A08A000B5249031BF276A
:102B4400903131269031CD2790313C249031410889
:102B54003927903121000E100B302000C50062305F
:102B6400890BB22DC50BB22D000019308D26903182
:102B740073082000C9007208C800EE279031B524FC
:102B840090312008B200862790314908A1004808F6
:102B9400A000B5249031BF27903131269031CD2744
:102BA40090313C24903142083927903121000E1491
:102BB4002000EE279031B52490312008B20021087E
:102BC400B3002208B400F230B5000230B60045303C
:102BD400B7003C2490314E0839279031B927903101
:102BE4004E087E279031312690314E082F279031A0
:102BF400B927903141087E27903131269031410820
:102C04002F279031B927903142087E279031312601
:102C1400903142082F27903142088600D427903102
:102C24004308B1278431B424903103181E2E592748
:102C340090314308A92790312000440886000130D0
:102C44008700D42790314208B1278431B4249031CD
:102C540003180800592790314408A92708002308BD
:102C6400A9002408AA002508AB0003102A0D2B0D87
:102C7400AC002C08031D3F2EF32F2608A9002708BB
:102C8400AA002808AB0003102A0D2B0DB10031084F
:102C9400031D4D2EF32F31087B3EAC072508B100F0
:102CA4002808B1068030B105FF30A417A717A60580
:102CB400A7050730A801AD01AE01AF01B000231C88
:102CC400652EDB279031A536A40CA30CA635A70DE1
:102CD400A80DB00B612E0930B000231C732EDB2726
:102CE4009031A536A40CA30CAF36AE0CAD0CB00BD2
:102CF4006F2E2D08F2002E08F3002F08F4002C0884
:102D0400F5003108F600D8267208A3007308A40061
:102D14007408A5000800F6007530F901FA0176067A
:102D2400031D962EE030972EC230220097007608BD
:102D340021009D00D0309E00F701F801F0300032F0
:102D4400890BA12E21009D140E30890BA72E0000A3
:102D540021009D1003301C05F4001B08F9077408BA
:102D6400FA3DF70A0319F80A7808803AF40080302B
:102D74007402031DBF2E04307702031CA02E7A08B0
:102D8400F5007908F400F536F40CF536F40C740803
:102D9400F9007508FA002200970121009D019E01A7
:102DA4007908F20003307A05F30008007508031966
:102DB400E02E740873047204031DE82EF201F3017B
:102DC400F4010800F50AF436F30CF20CFE30740535
:102DD4000319F62EE42EF50AF20A0319F30A03196D
:102DE400F40AF436F30CF20CFF3074050319032FC4
:102DF400ED2E02307502031C052FF503F235F30D99
:102E0400F40DF31FFB2E751CF313F5367508F9004A
:102E1400F801F7017708F2047808F3047908F40458
:102E24007608031DF4170800F400F30172087418FF
:102E3400F307F235F4367408031D182F73080800DD
:102E440021000E1222001D119D1323009E161D1633
:102E5400FA30F2009830F300080086000130870051
:102E64002308C03F2408C13F2508C23F080086004C
:102E7400013087003208C03F3308C13F3408C23FE5
:102E84000800860001308700403FB500413FB6008E
:102E9400423FB700A030B201B3004130B400080093
:102EA400B700A030B201B3004130B40008002000E4
:102EB4004208860001308700403FC500413FC600FC
:102EC400423FC70008007308F5007208F400770851
:102ED4007407840075080318750A85000800200823
:102EE400B5002108B600220808003208CD003308D6
:102EF400CE003408CF0008008600403FA600413FC2
:102F0400A700423FA80008002108B3002208B4002B
:102F14001230A3008330A4004030A500080032081A
:102F2400C4003308C5003408C6003F30C101C201E3
:102F3400C30008002E0884000130850000088100C9
:102F4400080023009E121D1221000E1608008600A0
:102F54004508C03F4608C13F4708C23F08008600F5
:102F6400403FF500413FF600423FF70008007A3049
:102F7400A301A4004430A50008002008A6002108ED
:102F8400A7002208A80008004108CD004208CE008E
:102F94004308CF0008002308B5002408B60025081C
:102FA400B7000800403FF200413FF300423FF40005
:102FB40008002608AD072708AE3D2808AF3D0800E5
:102FC40020005B088600013087000800FF30C4063B
:102FD400C506C606C40A08004D08A1004C08A00096
:102FE4000800A301A401A5010800B201B300423006
:102FF400B4000800B201B301B40108002434503411
:103004005534423458342C34343430342C3447342A
:103014004C344C342C3430342C3430342C34303460
:103024002C3430342A34353443340D340A340034E7
:10303400413454342434433457343D3438343634EE
:1030440038343134333430343034303430342C3454
:1030540031342C3431343534003424345034553440
:10306400423458342C34343430342C3456345434BC
:1030740047342C3430342C3431342C3430342C3424
:1030840030342A34353446340D340A34003424348C
:1030940050345534423458342C34343430342C3491
:1030A4005634543447342C3430342C3430342C34A7
:1030B40030342C3430342A34353445340D340A3425
:1030C4000034243450345534423458342C34343499
:1030D40030342C344734473441342C3430342C3499
:1030E40031342C3430342C3430342A3435344234B2
:1030F4000D340A34003424345034553442345834B2
:103104002C34343430342C344734473441342C3464
:1031140030342C3430342C3430342C3430342A349D
:10312400353441340D340A340034243450345534A5
:10313400423458342C34343430342C3452344D34F6
:1031440043342C3430342C3430342C3430342C3458
:1031540030342A34343437340D340A3400342434CB
:1031640050345534423458342C34343430342C34C0
:103174004734533456342C3430342C3430342C34D7
:1031840030342C3430342A34353439340D340A3460
:103194000034243450345534423458342C343434C8
:1031A40030342C344734533441342C3430342C34BC
:1031B40030342C3430342C3430342A3434344534E0
:1031C4000D340A34003424344734503447344734FB
:1031D400413400342434473450345634543447345E
:1031E400003441345434243450343D3431340034C4
:1031F400413454342434533446343D34003441345B
:103204005434493432343634003441345434493437
:0A321400373400344F344B340034DB
:020000040001F9
:04000E00ECF8FFFE0D
:00000001FF
